:20000000A0ABB1B3B5B5B500000000B5B500B5B5B5B5B5B5B5B5B5B5B5B5B5B5B5B5B5B5EE
:20008000B5B5B5B5B5B5B5B5B5B5B5B5B5B5B5B5B5B5B5B5B5B5B5B5B50000B5B5B5B5B52A
:20010000B5B5B5B50000B5B5B5B5B5B5B5B5B5B500000000B5B5B5B5000000000000000025
:20018000000000000000000000000000B5B5B5B5B5B5B5B5B5B5B5B5B5B5B50000B5B5B5A5
:1B020000B5B50000B5B5B5B5B5B5B5B5B5B5B5B5B5B5B5B5B5B5B5B5B5B5B536
:20026C000E01575101B05552085020BD0200014B010E0100018800080500010302680209C1
:2002EC0001020202E20EAD0100010100D10C0C0A0026FF02029D0A250023089D0D9D0A9D4A
:20036C001B9D0D19080188009D50400F0C01B7020A027E0508007D08080DF0C4E4C8003C33
:2003EC0000000240000804020000FF004000255340002034000104108D050005050109F5A6
:20046C00C00301500303160120000104000305400101070601200001040002400808F70252
:2004EC00E20580024005A005E101CE4105D6C003015003040607012000010400100001066C
:20056C00024051020381020650F3E91040079D300442682407010512400504340480050502
:2005EC00000704426824B803B2013E13C9682402F002E7093A0040342EFF3C1169113F2518
:20066C000B163F0BF63FE23FC0153FC05301203D3D3D3D3D3D3D3D3D3D00008B0080AD2724
:2006EC000038FF028070204552FC0800FB00005E000001170158015801C05501540800FF75
:20076C0008015025004F014E43000001418D0E95003C8044D80043080A42083D01130E04C2
:2007EC000000FB393401003104883300000022080EAD018D00280026081401FB9D09130200
:20086C0000214002B051032E1E0001B1D10000C200C1010808000020158C9094989CB400D5
:2008EC00080165088D800E00F5FF120003610105FF0006FF55005308001480004001010160
:20096C004F024F02FF0330AAAD0010BD02815110AD031090298E03FF3203A9FF4F000180D9
:2009EC00000557696663207374616E005374616E0D57676163610D432046687A200D46688E
:200A6C00204673207367640D08C1C06C2D845654580998000103040FC40EABC4C4412BC491
:200AEC000853DC0B00CC93DC0B04CCD3DC0B08CC13DC0B18CC03459D52DC0A3CCC7ADC0AA1
:200B6C000CCCBADC0A10CCFADC0A14CC3ADC0A1CCC00A5B8DC084417CC1940DC88401928A7
:200BEC000128CCBD0000002D8A192AFC404F93833801014FD9C9130F0470904F4F414F0914
:200C6C000180058001000BBE04D9DF43830C280800180880384448BE054646061F4646C2B4
:200CEC000F8B38802800288000003CDA20C5EF30AC3FBD4014E90405A010101040004F0B54
:200D6C00309818320018FF2B0023D2D2D2C3521F5B7AB0CCCC005892440EB313B70D80B72C
:200DEC00030013040200E271092A29038604C5C449F188F810009000802D04187BC401C4DF
:200E6C00D400D4D4D4D4D400878689568E568E40CFC10640214C29288020078AFF8E0B6F04
:200EEC00214E69010108CF40D9401140D140D1CF02C004040004848080FB40A8F0E8F00ECF
:200F6C00FFB4ED002A004F000188B700099E40A100010F920095526963206D6D20736F69CA
:200FEC002E0A526963206D6D206F6C742E0A0500005F8B831070781070382C05240808085F
:20106C002A22034022F714D8120343120A034383C312120B49526008011201081A9921BBF3
:2010EC004F01480800FF007AF10BFF8F0B0023334F0002000800C000C908000133012F0092
:20116C0016004F033400E1710E00040004099204AD003704EC00000000000A71030000B2BC
:2011EC0010F60811410441080E080D0F0F101218121804022012187114B001011210120CCA
:20126C0008540121407F000AA50204A5B0FF142048300000F8F2F338B32501B3AC7C15058D
:2012EC0052AD41073F06C287F406035BDB089CF816420240D7DB7F205C0209AC7C050003BC
:20136C006400501E14FFF8080817241D160D211051011F001408400108410801000841015E
:2013EC001024BCF8401C0048107F010301015BEAF501010FC512001C301C60F7D410C31A1E
:20146C00C203249301C1190A020103021941410010FE000000F810101104000B0CA58B8A50
:2014EC00F8F80308F8F80000000000004ECE08F0030C0C6F870A0780D6017B2F00FEA00020
:20156C00CC0008FB380520B0000A801028208000FF38A0FFACB01010C00121C1FF2104C345
:2015EC00D3C00F0FA0082C6C00100C0D930C0C080803F910B10810000000FC5CF80F73174C
:20166C00003290520B55030890FF73A4E5142070160031B3242203492002F1CAC181000005
:2016EC007049494900D0D0410D2024D0D0F21F42700A00E438945290908001F6021100FF49
:20176C001C0112B0000B02FC5BF842120121400CC00100A1D27E41414101017000F8091D5B
:2017EC000A9C16024CF845F800080BC00100A1D27E410180007000090108081A805814FF88
:20186C0070080853D00B009200D011200120385409515B05406401013872105B0401449A16
:2018EC0004380002FC423F01FC40611809404400020081FC0410020270FE380C089D21FFD0
:20196C00380CA52131FF380203190A8A7014352119FF3804FF0008FFFF100C4F08FF100280
:2019EC00FF012151C11002010103700970B04F42010008111811187000000108000001088A
:201A6C004011C1D0C319D310707010707003009737FEFE210181FC709201020182815070B4
:051AEC0021C0707070C4
:201B00000000000000000000000000000000000000000000000000000000000000000000C5
:201B80000000000040008000990000000040008000000000800000C06400008000004000C8
:201C0000230025002700330056006C006E007000720074007600780023002500270033000C
:201C80004F005100720074004080C0C0C0C0C00004080C103034386300000000000102D044
:121D000001041F00FF9FF9790034006C00A0206C2800A9
:00000001FF
